{
  "_format": "hh-sol-artifact-1",
  "contractName": "ConfidentialIPAsset",
  "sourceName": "contracts/ConfidentialIPAsset.sol",
  "abi": [
    {
      "inputs": [],
      "stateMutability": "nonpayable",
      "type": "constructor"
    },
    {
      "inputs": [],
      "name": "FHEVMRequired",
      "type": "error"
    },
    {
      "inputs": [
        {
          "internalType": "address",
          "name": "owner",
          "type": "address"
        }
      ],
      "name": "OwnableInvalidOwner",
      "type": "error"
    },
    {
      "inputs": [
        {
          "internalType": "address",
          "name": "account",
          "type": "address"
        }
      ],
      "name": "OwnableUnauthorizedAccount",
      "type": "error"
    },
    {
      "inputs": [],
      "name": "ReentrancyGuardReentrantCall",
      "type": "error"
    },
    {
      "anonymous": false,
      "inputs": [
        {
          "indexed": true,
          "internalType": "uint256",
          "name": "tokenId",
          "type": "uint256"
        },
        {
          "indexed": true,
          "internalType": "address",
          "name": "owner",
          "type": "address"
        },
        {
          "indexed": false,
          "internalType": "bytes32",
          "name": "ipHashCommitment",
          "type": "bytes32"
        }
      ],
      "name": "IPRegisteredConfidential",
      "type": "event"
    },
    {
      "anonymous": false,
      "inputs": [
        {
          "indexed": true,
          "internalType": "address",
          "name": "previousOwner",
          "type": "address"
        },
        {
          "indexed": true,
          "internalType": "address",
          "name": "newOwner",
          "type": "address"
        }
      ],
      "name": "OwnershipTransferred",
      "type": "event"
    },
    {
      "anonymous": false,
      "inputs": [
        {
          "indexed": true,
          "internalType": "uint256",
          "name": "tokenId",
          "type": "uint256"
        }
      ],
      "name": "RevenuePaidConfidential",
      "type": "event"
    },
    {
      "inputs": [
        {
          "internalType": "uint256",
          "name": "",
          "type": "uint256"
        }
      ],
      "name": "confidentialIPs",
      "outputs": [
        {
          "internalType": "uint256",
          "name": "tokenId",
          "type": "uint256"
        },
        {
          "internalType": "address",
          "name": "owner",
          "type": "address"
        },
        {
          "internalType": "bytes",
          "name": "encryptedMetadata",
          "type": "bytes"
        },
        {
          "internalType": "bytes32",
          "name": "ipHashCommitment",
          "type": "bytes32"
        },
        {
          "internalType": "bool",
          "name": "exists",
          "type": "bool"
        }
      ],
      "stateMutability": "view",
      "type": "function"
    },
    {
      "inputs": [
        {
          "internalType": "uint256",
          "name": "",
          "type": "uint256"
        }
      ],
      "name": "confidentialRevenue",
      "outputs": [
        {
          "internalType": "uint256",
          "name": "",
          "type": "uint256"
        }
      ],
      "stateMutability": "view",
      "type": "function"
    },
    {
      "inputs": [
        {
          "internalType": "uint256",
          "name": "tokenId",
          "type": "uint256"
        }
      ],
      "name": "getEncryptedMetadata",
      "outputs": [
        {
          "internalType": "bytes",
          "name": "",
          "type": "bytes"
        }
      ],
      "stateMutability": "view",
      "type": "function"
    },
    {
      "inputs": [],
      "name": "nextTokenId",
      "outputs": [
        {
          "internalType": "uint256",
          "name": "",
          "type": "uint256"
        }
      ],
      "stateMutability": "view",
      "type": "function"
    },
    {
      "inputs": [],
      "name": "owner",
      "outputs": [
        {
          "internalType": "address",
          "name": "",
          "type": "address"
        }
      ],
      "stateMutability": "view",
      "type": "function"
    },
    {
      "inputs": [
        {
          "internalType": "uint256",
          "name": "tokenId",
          "type": "uint256"
        },
        {
          "internalType": "uint256",
          "name": "amount",
          "type": "uint256"
        }
      ],
      "name": "payRevenueConfidential",
      "outputs": [],
      "stateMutability": "payable",
      "type": "function"
    },
    {
      "inputs": [
        {
          "internalType": "bytes",
          "name": "encryptedMetadata_",
          "type": "bytes"
        },
        {
          "internalType": "bytes32",
          "name": "ipHashCommitment_",
          "type": "bytes32"
        }
      ],
      "name": "registerIPConfidential",
      "outputs": [
        {
          "internalType": "uint256",
          "name": "tokenId",
          "type": "uint256"
        }
      ],
      "stateMutability": "nonpayable",
      "type": "function"
    },
    {
      "inputs": [],
      "name": "renounceOwnership",
      "outputs": [],
      "stateMutability": "nonpayable",
      "type": "function"
    },
    {
      "inputs": [
        {
          "internalType": "address",
          "name": "newOwner",
          "type": "address"
        }
      ],
      "name": "transferOwnership",
      "outputs": [],
      "stateMutability": "nonpayable",
      "type": "function"
    }
  ],
  "bytecode": "0x6080604052600160045534801561001557600080fd5b50338061003c57604051631e4fbdf760e01b81526000600482015260240160405180910390fd5b6100458161004f565b506001805561009f565b600080546001600160a01b038381166001600160a01b0319831681178455604051919092169283917f8be0079c531659141344cd1fd0a4f28419497f9722a3daafe3b4186f6b6457e09190a35050565b610a28806100ae6000396000f3fe6080604052600436106100765760003560e01c806301285f211461007b5780633dd2e9a2146100bb57806361a5f1c1146100e8578063715018a61461010857806375794a3c1461011f57806380449649146101355780638da5cb5b14610148578063976be9751461016a578063f2fde38b1461019b575b600080fd5b34801561008757600080fd5b506100a861009636600461068a565b60036020526000908152604090205481565b6040519081526020015b60405180910390f35b3480156100c757600080fd5b506100db6100d636600461068a565b6101bb565b6040516100b291906106e9565b3480156100f457600080fd5b506100a8610103366004610703565b61029a565b34801561011457600080fd5b5061011d6103d7565b005b34801561012b57600080fd5b506100a860045481565b61011d61014336600461077a565b6103eb565b34801561015457600080fd5b5061015d6104cb565b6040516100b2919061079c565b34801561017657600080fd5b5061018a61018536600461068a565b6104da565b6040516100b29594939291906107b0565b3480156101a757600080fd5b5061011d6101b63660046107f3565b6105a0565b60008181526002602052604090206004015460609060ff166101f85760405162461bcd60e51b81526004016101ef9061081c565b60405180910390fd5b60008281526002602081905260409091200180546102159061084a565b80601f01602080910402602001604051908101604052809291908181526020018280546102419061084a565b801561028e5780601f106102635761010080835404028352916020019161028e565b820191906000526020600020905b81548152906001019060200180831161027157829003601f168201915b50505050509050919050565b60048054600091826102ab8361089a565b9190505590506040518060a00160405280828152602001336001600160a01b0316815260200185858080601f0160208091040260200160405190810160405280939291908181526020018383808284376000920182905250938552505050602080830186905260016040938401819052858352600280835292849020855181559185015190820180546001600160a01b0319166001600160a01b039092169190911790559183015190820190610361908261091a565b5060608201516003828101919091556080909201516004909101805460ff19169115159190911790556000828152602091825260408082209190915551838152339183917fc81f0f398f904dc54b6544fd65417b5d8aabb3c187c1427f71cf1ecd1b9d5f63910160405180910390a39392505050565b6103df6105de565b6103e96000610610565b565b6103f3610660565b60008281526002602052604090206004015460ff166104245760405162461bcd60e51b81526004016101ef9061081c565b80341480156104335750600081115b6104705760405162461bcd60e51b815260206004820152600e60248201526d125b9d985b1a5908185b5bdd5b9d60921b60448201526064016101ef565b6000828152600360205260408120805483929061048e9084906109d9565b909155505060405182907fafeca021264b8820ee8554e2ffb273236586c07cf4cd14c8c93ccf9edae9003e90600090a26104c760018055565b5050565b6000546001600160a01b031690565b600260208190526000918252604090912080546001820154928201805491936001600160a01b0316929161050d9061084a565b80601f01602080910402602001604051908101604052809291908181526020018280546105399061084a565b80156105865780601f1061055b57610100808354040283529160200191610586565b820191906000526020600020905b81548152906001019060200180831161056957829003601f168201915b50505050600383015460049093015491929160ff16905085565b6105a86105de565b6001600160a01b0381166105d2576000604051631e4fbdf760e01b81526004016101ef919061079c565b6105db81610610565b50565b336105e76104cb565b6001600160a01b0316146103e9573360405163118cdaa760e01b81526004016101ef919061079c565b600080546001600160a01b038381166001600160a01b0319831681178455604051919092169283917f8be0079c531659141344cd1fd0a4f28419497f9722a3daafe3b4186f6b6457e09190a35050565b60026001540361068357604051633ee5aeb560e01b815260040160405180910390fd5b6002600155565b60006020828403121561069c57600080fd5b5035919050565b6000815180845260005b818110156106c9576020818501810151868301820152016106ad565b506000602082860101526020601f19601f83011685010191505092915050565b6020815260006106fc60208301846106a3565b9392505050565b60008060006040848603121561071857600080fd5b83356001600160401b038082111561072f57600080fd5b818601915086601f83011261074357600080fd5b81358181111561075257600080fd5b87602082850101111561076457600080fd5b6020928301989097509590910135949350505050565b6000806040838503121561078d57600080fd5b50508035926020909101359150565b6001600160a01b0391909116815260200190565b8581526001600160a01b038516602082015260a0604082018190526000906107da908301866106a3565b6060830194909452509015156080909101529392505050565b60006020828403121561080557600080fd5b81356001600160a01b03811681146106fc57600080fd5b602080825260149082015273151bdad95b88191bd95cc81b9bdd08195e1a5cdd60621b604082015260600190565b600181811c9082168061085e57607f821691505b60208210810361087e57634e487b7160e01b600052602260045260246000fd5b50919050565b634e487b7160e01b600052601160045260246000fd5b6000600182016108ac576108ac610884565b5060010190565b634e487b7160e01b600052604160045260246000fd5b601f821115610915576000816000526020600020601f850160051c810160208610156108f25750805b601f850160051c820191505b81811015610911578281556001016108fe565b5050505b505050565b81516001600160401b03811115610933576109336108b3565b61094781610941845461084a565b846108c9565b602080601f83116001811461097c57600084156109645750858301515b600019600386901b1c1916600185901b178555610911565b600085815260208120601f198616915b828110156109ab5788860151825594840194600190910190840161098c565b50858210156109c95787850151600019600388901b60f8161c191681555b5050505050600190811b01905550565b808201808211156109ec576109ec610884565b9291505056fea26469706673582212206463ca0a2c4f30febc9a3d578fa0e4cc5bc5e965e72e002ea9602261691f309264736f6c63430008180033",
  "linkReferences": {},
  "deployedLinkReferences": {}
}